{
  "_format": "hh-sol-artifact-1",
  "contractName": "IssuerRegistry",
  "sourceName": "contracts/IssuerRegistry.sol",
  "abi": [
    {
      "inputs": [],
      "stateMutability": "nonpayable",
      "type": "constructor"
    },
    {
      "inputs": [],
      "name": "AccessControlBadConfirmation",
      "type": "error"
    },
    {
      "inputs": [
        {
          "internalType": "address",
          "name": "account",
          "type": "address"
        },
        {
          "internalType": "bytes32",
          "name": "neededRole",
          "type": "bytes32"
        }
      ],
      "name": "AccessControlUnauthorizedAccount",
      "type": "error"
    },
    {
      "anonymous": false,
      "inputs": [
        {
          "indexed": true,
          "internalType": "address",
          "name": "issuerAddress",
          "type": "address"
        }
      ],
      "name": "IssuerReactivated",
      "type": "event"
    },
    {
      "anonymous": false,
      "inputs": [
        {
          "indexed": true,
          "internalType": "address",
          "name": "issuerAddress",
          "type": "address"
        },
        {
          "indexed": false,
          "internalType": "string",
          "name": "name",
          "type": "string"
        },
        {
          "indexed": false,
          "internalType": "string",
          "name": "department",
          "type": "string"
        }
      ],
      "name": "IssuerRegistered",
      "type": "event"
    },
    {
      "anonymous": false,
      "inputs": [
        {
          "indexed": true,
          "internalType": "address",
          "name": "issuerAddress",
          "type": "address"
        }
      ],
      "name": "IssuerRevoked",
      "type": "event"
    },
    {
      "anonymous": false,
      "inputs": [
        {
          "indexed": true,
          "internalType": "bytes32",
          "name": "role",
          "type": "bytes32"
        },
        {
          "indexed": true,
          "internalType": "bytes32",
          "name": "previousAdminRole",
          "type": "bytes32"
        },
        {
          "indexed": true,
          "internalType": "bytes32",
          "name": "newAdminRole",
          "type": "bytes32"
        }
      ],
      "name": "RoleAdminChanged",
      "type": "event"
    },
    {
      "anonymous": false,
      "inputs": [
        {
          "indexed": true,
          "internalType": "bytes32",
          "name": "role",
          "type": "bytes32"
        },
        {
          "indexed": true,
          "internalType": "address",
          "name": "account",
          "type": "address"
        },
        {
          "indexed": true,
          "internalType": "address",
          "name": "sender",
          "type": "address"
        }
      ],
      "name": "RoleGranted",
      "type": "event"
    },
    {
      "anonymous": false,
      "inputs": [
        {
          "indexed": true,
          "internalType": "bytes32",
          "name": "role",
          "type": "bytes32"
        },
        {
          "indexed": true,
          "internalType": "address",
          "name": "account",
          "type": "address"
        },
        {
          "indexed": true,
          "internalType": "address",
          "name": "sender",
          "type": "address"
        }
      ],
      "name": "RoleRevoked",
      "type": "event"
    },
    {
      "inputs": [],
      "name": "ADMIN_ROLE",
      "outputs": [
        {
          "internalType": "bytes32",
          "name": "",
          "type": "bytes32"
        }
      ],
      "stateMutability": "view",
      "type": "function"
    },
    {
      "inputs": [],
      "name": "DEFAULT_ADMIN_ROLE",
      "outputs": [
        {
          "internalType": "bytes32",
          "name": "",
          "type": "bytes32"
        }
      ],
      "stateMutability": "view",
      "type": "function"
    },
    {
      "inputs": [],
      "name": "ISSUER_ROLE",
      "outputs": [
        {
          "internalType": "bytes32",
          "name": "",
          "type": "bytes32"
        }
      ],
      "stateMutability": "view",
      "type": "function"
    },
    {
      "inputs": [
        {
          "internalType": "address",
          "name": "_issuerAddress",
          "type": "address"
        }
      ],
      "name": "getIssuer",
      "outputs": [
        {
          "components": [
            {
              "internalType": "address",
              "name": "issuerAddress",
              "type": "address"
            },
            {
              "internalType": "string",
              "name": "name",
              "type": "string"
            },
            {
              "internalType": "string",
              "name": "department",
              "type": "string"
            },
            {
              "internalType": "bool",
              "name": "isActive",
              "type": "bool"
            },
            {
              "internalType": "uint256",
              "name": "registeredAt",
              "type": "uint256"
            }
          ],
          "internalType": "struct IssuerRegistry.Issuer",
          "name": "",
          "type": "tuple"
        }
      ],
      "stateMutability": "view",
      "type": "function"
    },
    {
      "inputs": [],
      "name": "getIssuerCount",
      "outputs": [
        {
          "internalType": "uint256",
          "name": "",
          "type": "uint256"
        }
      ],
      "stateMutability": "view",
      "type": "function"
    },
    {
      "inputs": [
        {
          "internalType": "bytes32",
          "name": "role",
          "type": "bytes32"
        }
      ],
      "name": "getRoleAdmin",
      "outputs": [
        {
          "internalType": "bytes32",
          "name": "",
          "type": "bytes32"
        }
      ],
      "stateMutability": "view",
      "type": "function"
    },
    {
      "inputs": [
        {
          "internalType": "bytes32",
          "name": "role",
          "type": "bytes32"
        },
        {
          "internalType": "address",
          "name": "account",
          "type": "address"
        }
      ],
      "name": "grantRole",
      "outputs": [],
      "stateMutability": "nonpayable",
      "type": "function"
    },
    {
      "inputs": [
        {
          "internalType": "bytes32",
          "name": "role",
          "type": "bytes32"
        },
        {
          "internalType": "address",
          "name": "account",
          "type": "address"
        }
      ],
      "name": "hasRole",
      "outputs": [
        {
          "internalType": "bool",
          "name": "",
          "type": "bool"
        }
      ],
      "stateMutability": "view",
      "type": "function"
    },
    {
      "inputs": [
        {
          "internalType": "address",
          "name": "_address",
          "type": "address"
        }
      ],
      "name": "isActiveIssuer",
      "outputs": [
        {
          "internalType": "bool",
          "name": "",
          "type": "bool"
        }
      ],
      "stateMutability": "view",
      "type": "function"
    },
    {
      "inputs": [
        {
          "internalType": "uint256",
          "name": "",
          "type": "uint256"
        }
      ],
      "name": "issuerAddresses",
      "outputs": [
        {
          "internalType": "address",
          "name": "",
          "type": "address"
        }
      ],
      "stateMutability": "view",
      "type": "function"
    },
    {
      "inputs": [
        {
          "internalType": "address",
          "name": "",
          "type": "address"
        }
      ],
      "name": "issuers",
      "outputs": [
        {
          "internalType": "address",
          "name": "issuerAddress",
          "type": "address"
        },
        {
          "internalType": "string",
          "name": "name",
          "type": "string"
        },
        {
          "internalType": "string",
          "name": "department",
          "type": "string"
        },
        {
          "internalType": "bool",
          "name": "isActive",
          "type": "bool"
        },
        {
          "internalType": "uint256",
          "name": "registeredAt",
          "type": "uint256"
        }
      ],
      "stateMutability": "view",
      "type": "function"
    },
    {
      "inputs": [
        {
          "internalType": "address",
          "name": "_issuerAddress",
          "type": "address"
        }
      ],
      "name": "reactivateIssuer",
      "outputs": [],
      "stateMutability": "nonpayable",
      "type": "function"
    },
    {
      "inputs": [
        {
          "internalType": "address",
          "name": "_issuerAddress",
          "type": "address"
        },
        {
          "internalType": "string",
          "name": "_name",
          "type": "string"
        },
        {
          "internalType": "string",
          "name": "_department",
          "type": "string"
        }
      ],
      "name": "registerIssuer",
      "outputs": [],
      "stateMutability": "nonpayable",
      "type": "function"
    },
    {
      "inputs": [
        {
          "internalType": "bytes32",
          "name": "role",
          "type": "bytes32"
        },
        {
          "internalType": "address",
          "name": "callerConfirmation",
          "type": "address"
        }
      ],
      "name": "renounceRole",
      "outputs": [],
      "stateMutability": "nonpayable",
      "type": "function"
    },
    {
      "inputs": [
        {
          "internalType": "address",
          "name": "_issuerAddress",
          "type": "address"
        }
      ],
      "name": "revokeIssuer",
      "outputs": [],
      "stateMutability": "nonpayable",
      "type": "function"
    },
    {
      "inputs": [
        {
          "internalType": "bytes32",
          "name": "role",
          "type": "bytes32"
        },
        {
          "internalType": "address",
          "name": "account",
          "type": "address"
        }
      ],
      "name": "revokeRole",
      "outputs": [],
      "stateMutability": "nonpayable",
      "type": "function"
    },
    {
      "inputs": [
        {
          "internalType": "bytes4",
          "name": "interfaceId",
          "type": "bytes4"
        }
      ],
      "name": "supportsInterface",
      "outputs": [
        {
          "internalType": "bool",
          "name": "",
          "type": "bool"
        }
      ],
      "stateMutability": "view",
      "type": "function"
    }
  ],
  "bytecode": "0x608060405234801561001057600080fd5b5061001c60003361004d565b506100477fa49807205ce4d355092ef5a8a18f56e8913cf4a201fbe287825b095693c217753361004d565b506100f9565b6000828152602081815260408083206001600160a01b038516845290915281205460ff166100ef576000838152602081815260408083206001600160a01b03861684529091529020805460ff191660011790556100a73390565b6001600160a01b0316826001600160a01b0316847f2f8788117e7eff1d82e926ec794901d17c78024a50270940304540a733656f0d60405160405180910390a45060016100f3565b5060005b92915050565b611157806101086000396000f3fe608060405234801561001057600080fd5b506004361061010a5760003560e01c806363527b49116100a257806391d148541161007157806391d148541461024a578063a217fddf1461025d578063cba5aa9b14610265578063d547741f14610278578063fef03da31461028b57600080fd5b806363527b491461020557806363e410211461020d57806375b238fc1461022057806382aefa241461023557600080fd5b80632f2ff15d116100de5780632f2ff15d146101905780632fad5991146101a357806336568abe146101ce57806338a7543e146101e157600080fd5b80626296791461010f57806301ffc9a7146101245780631b76637e1461014c578063248a9ca31461015f575b600080fd5b61012261011d366004610cc4565b6102ab565b005b610137610132366004610ce6565b61039b565b60405190151581526020015b60405180910390f35b61012261015a366004610cc4565b6103d2565b61018261016d366004610d10565b60009081526020819052604090206001015490565b604051908152602001610143565b61012261019e366004610d29565b610528565b6101b66101b1366004610d10565b610553565b6040516001600160a01b039091168152602001610143565b6101226101dc366004610d29565b61057d565b6101f46101ef366004610cc4565b6105b5565b604051610143959493929190610d9b565b600254610182565b61012261021b366004610e89565b610703565b61018260008051602061110283398151915281565b6101826000805160206110e283398151915281565b610137610258366004610d29565b610922565b610182600081565b610137610273366004610cc4565b61094b565b610122610286366004610d29565b610989565b61029e610299366004610cc4565b6109ae565b6040516101439190610efd565b6000805160206111028339815191526102c381610b61565b6001600160a01b03821660009081526001602052604090206003015460ff166103275760405162461bcd60e51b8152602060048201526011602482015270497373756572206e6f742061637469766560781b60448201526064015b60405180910390fd5b6001600160a01b0382166000908152600160205260409020600301805460ff191690556103626000805160206110e283398151915283610b6e565b506040516001600160a01b038316907f95a4c2ae425bb769549aa1a911911ff57c17ae811ae8c8962d0b9746fcb1539790600090a25050565b60006001600160e01b03198216637965db0b60e01b14806103cc57506301ffc9a760e01b6001600160e01b03198316145b92915050565b6000805160206111028339815191526103ea81610b61565b6001600160a01b03821660009081526001602052604090206003015460ff161561044e5760405162461bcd60e51b815260206004820152601560248201527449737375657220616c72656164792061637469766560581b604482015260640161031e565b6001600160a01b0382166000908152600160205260409020600401546104ae5760405162461bcd60e51b8152602060048201526015602482015274125cdcdd595c881b9bdd081c9959da5cdd195c9959605a1b604482015260640161031e565b6001600160a01b0382166000908152600160208190526040909120600301805460ff191690911790556104ef6000805160206110e283398151915283610be1565b506040516001600160a01b038316907f4ece882b1ae39652655977134afaaf2566aba0074213ef33a45cd7cce7d9a6f090600090a25050565b60008281526020819052604090206001015461054381610b61565b61054d8383610be1565b50505050565b6002818154811061056357600080fd5b6000918252602090912001546001600160a01b0316905081565b6001600160a01b03811633146105a65760405163334bd91960e11b815260040160405180910390fd5b6105b08282610b6e565b505050565b6001602081905260009182526040909120805491810180546001600160a01b03909316926105e290610f6b565b80601f016020809104026020016040519081016040528092919081815260200182805461060e90610f6b565b801561065b5780601f106106305761010080835404028352916020019161065b565b820191906000526020600020905b81548152906001019060200180831161063e57829003601f168201915b50505050509080600201805461067090610f6b565b80601f016020809104026020016040519081016040528092919081815260200182805461069c90610f6b565b80156106e95780601f106106be576101008083540402835291602001916106e9565b820191906000526020600020905b8154815290600101906020018083116106cc57829003601f168201915b505050506003830154600490930154919260ff1691905085565b60008051602061110283398151915261071b81610b61565b6001600160a01b0384166107635760405162461bcd60e51b815260206004820152600f60248201526e496e76616c6964206164647265737360881b604482015260640161031e565b6001600160a01b03841660009081526001602052604090206003015460ff16156107cf5760405162461bcd60e51b815260206004820152601960248201527f49737375657220616c7265616479207265676973746572656400000000000000604482015260640161031e565b6040805160a0810182526001600160a01b03868116808352602080840188815284860188905260016060860181905242608087015260009384529182905294909120835181546001600160a01b03191693169290921782559251919290919082019061083b9082610ff3565b50604082015160028201906108509082610ff3565b50606082015160038201805460ff1916911515919091179055608090910151600490910155600280546001810182556000919091527f405787fa12a823e0f2b7631cc41b3ba8828b3321ca811111fa75cd3aa3bb5ace0180546001600160a01b0319166001600160a01b0386161790556108d86000805160206110e283398151915285610be1565b50836001600160a01b03167f2b062b4e0857383c98aacd16bcd2714030d81ad54eb91dd1885634442438665184846040516109149291906110b3565b60405180910390a250505050565b6000918252602082815260408084206001600160a01b0393909316845291905290205460ff1690565b6001600160a01b03811660009081526001602052604081206003015460ff1680156103cc57506103cc6000805160206110e283398151915283610922565b6000828152602081905260409020600101546109a481610b61565b61054d8383610b6e565b6109eb6040518060a0016040528060006001600160a01b031681526020016060815260200160608152602001600015158152602001600081525090565b6001600160a01b03808316600090815260016020818152604092839020835160a0810190945280549094168352908301805492939291840191610a2d90610f6b565b80601f0160208091040260200160405190810160405280929190818152602001828054610a5990610f6b565b8015610aa65780601f10610a7b57610100808354040283529160200191610aa6565b820191906000526020600020905b815481529060010190602001808311610a8957829003601f168201915b50505050508152602001600282018054610abf90610f6b565b80601f0160208091040260200160405190810160405280929190818152602001828054610aeb90610f6b565b8015610b385780601f10610b0d57610100808354040283529160200191610b38565b820191906000526020600020905b815481529060010190602001808311610b1b57829003601f168201915b5050509183525050600382015460ff161515602082015260049091015460409091015292915050565b610b6b8133610c6b565b50565b6000610b7a8383610922565b15610bd9576000838152602081815260408083206001600160a01b0386168085529252808320805460ff1916905551339286917ff6391f5c32d9c69d2a47ea670b442974b53935d1edc7fd64eb21e047a839171b9190a45060016103cc565b5060006103cc565b6000610bed8383610922565b610bd9576000838152602081815260408083206001600160a01b03861684529091529020805460ff19166001179055610c233390565b6001600160a01b0316826001600160a01b0316847f2f8788117e7eff1d82e926ec794901d17c78024a50270940304540a733656f0d60405160405180910390a45060016103cc565b610c758282610922565b610ca45760405163e2517d3f60e01b81526001600160a01b03821660048201526024810183905260440161031e565b5050565b80356001600160a01b0381168114610cbf57600080fd5b919050565b600060208284031215610cd657600080fd5b610cdf82610ca8565b9392505050565b600060208284031215610cf857600080fd5b81356001600160e01b031981168114610cdf57600080fd5b600060208284031215610d2257600080fd5b5035919050565b60008060408385031215610d3c57600080fd5b82359150610d4c60208401610ca8565b90509250929050565b6000815180845260005b81811015610d7b57602081850181015186830182015201610d5f565b506000602082860101526020601f19601f83011685010191505092915050565b6001600160a01b038616815260a060208201819052600090610dbf90830187610d55565b8281036040840152610dd18187610d55565b94151560608401525050608001529392505050565b634e487b7160e01b600052604160045260246000fd5b600082601f830112610e0d57600080fd5b813567ffffffffffffffff80821115610e2857610e28610de6565b604051601f8301601f19908116603f01168101908282118183101715610e5057610e50610de6565b81604052838152866020858801011115610e6957600080fd5b836020870160208301376000602085830101528094505050505092915050565b600080600060608486031215610e9e57600080fd5b610ea784610ca8565b9250602084013567ffffffffffffffff80821115610ec457600080fd5b610ed087838801610dfc565b93506040860135915080821115610ee657600080fd5b50610ef386828701610dfc565b9150509250925092565b602080825282516001600160a01b03168282015282015160a06040830152600090610f2b60c0840182610d55565b90506040840151601f19848303016060850152610f488282610d55565b915050606084015115156080840152608084015160a08401528091505092915050565b600181811c90821680610f7f57607f821691505b602082108103610f9f57634e487b7160e01b600052602260045260246000fd5b50919050565b601f8211156105b057600081815260208120601f850160051c81016020861015610fcc5750805b601f850160051c820191505b81811015610feb57828155600101610fd8565b505050505050565b815167ffffffffffffffff81111561100d5761100d610de6565b6110218161101b8454610f6b565b84610fa5565b602080601f831160018114611056576000841561103e5750858301515b600019600386901b1c1916600185901b178555610feb565b600085815260208120601f198616915b8281101561108557888601518255948401946001909101908401611066565b50858210156110a35787850151600019600388901b60f8161c191681555b5050505050600190811b01905550565b6040815260006110c66040830185610d55565b82810360208401526110d88185610d55565b9594505050505056fe114e74f6ea3bd819998f78687bfcb11b140da08e9b7d222fa9c1f1ba1f2aa122a49807205ce4d355092ef5a8a18f56e8913cf4a201fbe287825b095693c21775a26469706673582212205e67e55d2999702380d84b38317b2efe414b94bc54ea7c3ad94c1a9343ababe364736f6c63430008140033",
  "linkReferences": {},
  "deployedLinkReferences": {}
}