{
  "_format": "hh-sol-artifact-1",
  "contractName": "CredentialRegistry",
  "sourceName": "contracts/CredentialRegistry.sol",
  "abi": [
    {
      "inputs": [
        {
          "internalType": "address",
          "name": "_issuerRegistryAddress",
          "type": "address"
        }
      ],
      "stateMutability": "nonpayable",
      "type": "constructor"
    },
    {
      "anonymous": false,
      "inputs": [
        {
          "indexed": true,
          "internalType": "uint256",
          "name": "credentialId",
          "type": "uint256"
        },
        {
          "indexed": true,
          "internalType": "address",
          "name": "studentAddress",
          "type": "address"
        },
        {
          "indexed": true,
          "internalType": "address",
          "name": "issuerAddress",
          "type": "address"
        },
        {
          "indexed": false,
          "internalType": "bytes32",
          "name": "contentHash",
          "type": "bytes32"
        },
        {
          "indexed": false,
          "internalType": "string",
          "name": "ipfsCid",
          "type": "string"
        },
        {
          "indexed": false,
          "internalType": "string",
          "name": "credentialType",
          "type": "string"
        }
      ],
      "name": "CredentialIssued",
      "type": "event"
    },
    {
      "anonymous": false,
      "inputs": [
        {
          "indexed": true,
          "internalType": "uint256",
          "name": "credentialId",
          "type": "uint256"
        },
        {
          "indexed": true,
          "internalType": "address",
          "name": "revokedBy",
          "type": "address"
        },
        {
          "indexed": false,
          "internalType": "string",
          "name": "reason",
          "type": "string"
        },
        {
          "indexed": false,
          "internalType": "uint256",
          "name": "revokedAt",
          "type": "uint256"
        }
      ],
      "name": "CredentialRevoked",
      "type": "event"
    },
    {
      "anonymous": false,
      "inputs": [
        {
          "indexed": true,
          "internalType": "uint256",
          "name": "credentialId",
          "type": "uint256"
        },
        {
          "indexed": true,
          "internalType": "address",
          "name": "verifier",
          "type": "address"
        },
        {
          "indexed": false,
          "internalType": "bool",
          "name": "isValid",
          "type": "bool"
        }
      ],
      "name": "CredentialVerified",
      "type": "event"
    },
    {
      "inputs": [],
      "name": "credentialCount",
      "outputs": [
        {
          "internalType": "uint256",
          "name": "",
          "type": "uint256"
        }
      ],
      "stateMutability": "view",
      "type": "function"
    },
    {
      "inputs": [
        {
          "internalType": "uint256",
          "name": "",
          "type": "uint256"
        }
      ],
      "name": "credentials",
      "outputs": [
        {
          "internalType": "uint256",
          "name": "id",
          "type": "uint256"
        },
        {
          "internalType": "address",
          "name": "studentAddress",
          "type": "address"
        },
        {
          "internalType": "address",
          "name": "issuerAddress",
          "type": "address"
        },
        {
          "internalType": "bytes32",
          "name": "contentHash",
          "type": "bytes32"
        },
        {
          "internalType": "string",
          "name": "ipfsCid",
          "type": "string"
        },
        {
          "internalType": "string",
          "name": "credentialType",
          "type": "string"
        },
        {
          "internalType": "enum CredentialRegistry.CredentialStatus",
          "name": "status",
          "type": "uint8"
        },
        {
          "internalType": "uint256",
          "name": "issuedAt",
          "type": "uint256"
        },
        {
          "internalType": "uint256",
          "name": "expiresAt",
          "type": "uint256"
        },
        {
          "internalType": "uint256",
          "name": "revokedAt",
          "type": "uint256"
        },
        {
          "internalType": "string",
          "name": "revocationReason",
          "type": "string"
        }
      ],
      "stateMutability": "view",
      "type": "function"
    },
    {
      "inputs": [
        {
          "internalType": "uint256",
          "name": "_credentialId",
          "type": "uint256"
        }
      ],
      "name": "getCredential",
      "outputs": [
        {
          "components": [
            {
              "internalType": "uint256",
              "name": "id",
              "type": "uint256"
            },
            {
              "internalType": "address",
              "name": "studentAddress",
              "type": "address"
            },
            {
              "internalType": "address",
              "name": "issuerAddress",
              "type": "address"
            },
            {
              "internalType": "bytes32",
              "name": "contentHash",
              "type": "bytes32"
            },
            {
              "internalType": "string",
              "name": "ipfsCid",
              "type": "string"
            },
            {
              "internalType": "string",
              "name": "credentialType",
              "type": "string"
            },
            {
              "internalType": "enum CredentialRegistry.CredentialStatus",
              "name": "status",
              "type": "uint8"
            },
            {
              "internalType": "uint256",
              "name": "issuedAt",
              "type": "uint256"
            },
            {
              "internalType": "uint256",
              "name": "expiresAt",
              "type": "uint256"
            },
            {
              "internalType": "uint256",
              "name": "revokedAt",
              "type": "uint256"
            },
            {
              "internalType": "string",
              "name": "revocationReason",
              "type": "string"
            }
          ],
          "internalType": "struct CredentialRegistry.Credential",
          "name": "",
          "type": "tuple"
        }
      ],
      "stateMutability": "view",
      "type": "function"
    },
    {
      "inputs": [
        {
          "internalType": "address",
          "name": "_issuerAddress",
          "type": "address"
        }
      ],
      "name": "getIssuerCredentials",
      "outputs": [
        {
          "internalType": "uint256[]",
          "name": "",
          "type": "uint256[]"
        }
      ],
      "stateMutability": "view",
      "type": "function"
    },
    {
      "inputs": [
        {
          "internalType": "address",
          "name": "_studentAddress",
          "type": "address"
        }
      ],
      "name": "getStudentCredentials",
      "outputs": [
        {
          "internalType": "uint256[]",
          "name": "",
          "type": "uint256[]"
        }
      ],
      "stateMutability": "view",
      "type": "function"
    },
    {
      "inputs": [],
      "name": "getTotalCredentials",
      "outputs": [
        {
          "internalType": "uint256",
          "name": "",
          "type": "uint256"
        }
      ],
      "stateMutability": "view",
      "type": "function"
    },
    {
      "inputs": [
        {
          "internalType": "address",
          "name": "_studentAddress",
          "type": "address"
        },
        {
          "internalType": "bytes32",
          "name": "_contentHash",
          "type": "bytes32"
        },
        {
          "internalType": "string",
          "name": "_ipfsCid",
          "type": "string"
        },
        {
          "internalType": "string",
          "name": "_credentialType",
          "type": "string"
        },
        {
          "internalType": "uint256",
          "name": "_expiresAt",
          "type": "uint256"
        }
      ],
      "name": "issueCredential",
      "outputs": [
        {
          "internalType": "uint256",
          "name": "",
          "type": "uint256"
        }
      ],
      "stateMutability": "nonpayable",
      "type": "function"
    },
    {
      "inputs": [
        {
          "internalType": "address",
          "name": "",
          "type": "address"
        },
        {
          "internalType": "uint256",
          "name": "",
          "type": "uint256"
        }
      ],
      "name": "issuerCredentials",
      "outputs": [
        {
          "internalType": "uint256",
          "name": "",
          "type": "uint256"
        }
      ],
      "stateMutability": "view",
      "type": "function"
    },
    {
      "inputs": [],
      "name": "issuerRegistry",
      "outputs": [
        {
          "internalType": "contract IssuerRegistry",
          "name": "",
          "type": "address"
        }
      ],
      "stateMutability": "view",
      "type": "function"
    },
    {
      "inputs": [
        {
          "internalType": "uint256",
          "name": "_credentialId",
          "type": "uint256"
        },
        {
          "internalType": "string",
          "name": "_reason",
          "type": "string"
        }
      ],
      "name": "revokeCredential",
      "outputs": [],
      "stateMutability": "nonpayable",
      "type": "function"
    },
    {
      "inputs": [
        {
          "internalType": "address",
          "name": "",
          "type": "address"
        },
        {
          "internalType": "uint256",
          "name": "",
          "type": "uint256"
        }
      ],
      "name": "studentCredentials",
      "outputs": [
        {
          "internalType": "uint256",
          "name": "",
          "type": "uint256"
        }
      ],
      "stateMutability": "view",
      "type": "function"
    },
    {
      "inputs": [
        {
          "internalType": "uint256",
          "name": "_credentialId",
          "type": "uint256"
        },
        {
          "internalType": "bytes32",
          "name": "_contentHash",
          "type": "bytes32"
        }
      ],
      "name": "verifyContentHash",
      "outputs": [
        {
          "internalType": "bool",
          "name": "",
          "type": "bool"
        }
      ],
      "stateMutability": "view",
      "type": "function"
    },
    {
      "inputs": [
        {
          "internalType": "uint256",
          "name": "_credentialId",
          "type": "uint256"
        }
      ],
      "name": "verifyCredential",
      "outputs": [
        {
          "internalType": "bool",
          "name": "isValid",
          "type": "bool"
        },
        {
          "internalType": "enum CredentialRegistry.CredentialStatus",
          "name": "status",
          "type": "uint8"
        },
        {
          "internalType": "string",
          "name": "message",
          "type": "string"
        }
      ],
      "stateMutability": "nonpayable",
      "type": "function"
    }
  ],
  "bytecode": "0x608060405234801561001057600080fd5b5060405161186f38038061186f83398101604081905261002f916100ae565b6001600160a01b0381166100895760405162461bcd60e51b815260206004820152601f60248201527f496e76616c696420697373756572207265676973747279206164647265737300604482015260640160405180910390fd5b600080546001600160a01b0319166001600160a01b03929092169190911790556100de565b6000602082840312156100c057600080fd5b81516001600160a01b03811681146100d757600080fd5b9392505050565b611782806100ed6000396000f3fe608060405234801561001057600080fd5b50600436106100cf5760003560e01c80638dd18d2d1161008c578063d8202ffb11610066578063d8202ffb146101de578063e0574e3f146101f1578063f1470a351461021b578063f2a91b1c1461022357600080fd5b80638dd18d2d146101a0578063957a3205146101c0578063cd0e35b9146101d557600080fd5b80630dd308cd146100d45780631abac44b146100fa578063218cdc321461010d578063419fac241461012d5780635ee0f031146101625780638bfc185114610175575b600080fd5b6100e76100e23660046110d1565b610245565b6040519081526020015b60405180910390f35b6100e76101083660046110d1565b610276565b61012061011b3660046110fb565b610292565b6040516100f1919061111d565b61015261013b366004611161565b600091825260016020526040909120600301541490565b60405190151581526020016100f1565b6100e7610170366004611226565b6102fe565b600054610188906001600160a01b031681565b6040516001600160a01b0390911681526020016100f1565b6101b36101ae3660046112ac565b61067b565b6040516100f19190611343565b6101d36101ce366004611426565b610992565b005b6100e760045481565b6101206101ec3660046110fb565b610bfe565b6102046101ff3660046112ac565b610c68565b6040516100f19b9a9998979695949392919061146d565b6004546100e7565b6102366102313660046112ac565b610e6b565b6040516100f193929190611503565b6002602052816000526040600020818154811061026157600080fd5b90600052602060002001600091509150505481565b6003602052816000526040600020818154811061026157600080fd5b6001600160a01b0381166000908152600260209081526040918290208054835181840281018401909452808452606093928301828280156102f257602002820191906000526020600020905b8154815260200190600101908083116102de575b50505050509050919050565b6000805460405163cba5aa9b60e01b81523360048201526001600160a01b039091169063cba5aa9b90602401602060405180830381865afa158015610347573d6000803e3d6000fd5b505050506040513d601f19601f8201168201806040525081019061036b9190611534565b6103b35760405162461bcd60e51b81526020600482015260146024820152732737ba1030b71030b1ba34bb329034b9b9bab2b960611b60448201526064015b60405180910390fd5b6001600160a01b0386166104095760405162461bcd60e51b815260206004820152601760248201527f496e76616c69642073747564656e74206164647265737300000000000000000060448201526064016103aa565b8461044d5760405162461bcd60e51b8152602060048201526014602482015273092dcecc2d8d2c840c6dedce8cadce840d0c2e6d60631b60448201526064016103aa565b60008451116104915760405162461bcd60e51b815260206004820152601060248201526f125b9d985b1a590812541194c810d25160821b60448201526064016103aa565b600480549060006104a183611556565b90915550506004805460408051610160810182528281526001600160a01b038a8116602080840191825233848601908152606085018d8152608086018d815260a087018d9052600160c088018190524260e089015261010088018d90526000610120890181905289518087018b528181526101408a01528a8152948190529790932086518155935196840180549786166001600160a01b03199889161790559051600284018054919095169616959095179092559251600384015551929390929082019061056f9082611606565b5060a082015160058201906105849082611606565b5060c082015160068201805460ff191660018360038111156105a8576105a861130b565b021790555060e0820151600782015561010082015160088201556101208201516009820155610140820151600a8201906105e29082611606565b5050506001600160a01b038716600081815260026020908152604080832080546001818101835591855283852001869055338085526003845282852080549283018155855292909320909201849055905190919083907f0b7340b97ab642926a9104c6b45ea58fa8840337fa338d2e6642381e1ba957f290610669908b908b908b906116c6565b60405180910390a49695505050505050565b6106d7604080516101608101825260008082526020820181905291810182905260608082018390526080820181905260a08201529060c08201908152602001600081526020016000815260200160008152602001606081525090565b60008281526001602052604090205461072e5760405162461bcd60e51b815260206004820152601960248201527810dc9959195b9d1a585b08191bd95cc81b9bdd08195e1a5cdd603a1b60448201526064016103aa565b60008281526001602081815260409283902083516101608101855281548152928101546001600160a01b0390811692840192909252600281015490911692820192909252600382015460608201526004820180549192916080840191906107949061157d565b80601f01602080910402602001604051908101604052809291908181526020018280546107c09061157d565b801561080d5780601f106107e25761010080835404028352916020019161080d565b820191906000526020600020905b8154815290600101906020018083116107f057829003601f168201915b505050505081526020016005820180546108269061157d565b80601f01602080910402602001604051908101604052809291908181526020018280546108529061157d565b801561089f5780601f106108745761010080835404028352916020019161089f565b820191906000526020600020905b81548152906001019060200180831161088257829003601f168201915b5050509183525050600682015460209091019060ff1660038111156108c6576108c661130b565b60038111156108d7576108d761130b565b8152602001600782015481526020016008820154815260200160098201548152602001600a820180546109099061157d565b80601f01602080910402602001604051908101604052809291908181526020018280546109359061157d565b80156109825780601f1061095757610100808354040283529160200191610982565b820191906000526020600020905b81548152906001019060200180831161096557829003601f168201915b5050505050815250509050919050565b60008281526001602052604090206002015482906001600160a01b0316331480610a93575060005460408051631d6c8e3f60e21b815290516001600160a01b03909216916391d148549183916375b238fc916004808201926020929091908290030181865afa158015610a09573d6000803e3d6000fd5b505050506040513d601f19601f82011682018060405250810190610a2d91906116f1565b6040516001600160e01b031960e084901b1681526004810191909152336024820152604401602060405180830381865afa158015610a6f573d6000803e3d6000fd5b505050506040513d601f19601f82011682018060405250810190610a939190611534565b610ad05760405162461bcd60e51b815260206004820152600e60248201526d139bdd08185d5d1a1bdc9a5e995960921b60448201526064016103aa565b60008381526001602052604090208054610b285760405162461bcd60e51b815260206004820152601960248201527810dc9959195b9d1a585b08191bd95cc81b9bdd08195e1a5cdd603a1b60448201526064016103aa565b6001600682015460ff166003811115610b4357610b4361130b565b14610b905760405162461bcd60e51b815260206004820152601f60248201527f43726564656e7469616c206e6f7420696e20697373756564207374617475730060448201526064016103aa565b60068101805460ff19166002179055426009820155600a8101610bb38482611606565b50336001600160a01b0316847f39f3e5f98a264f2bb0648267899a35737685f4427730cb692d72df545b2bae788542604051610bf092919061170a565b60405180910390a350505050565b6001600160a01b0381166000908152600360209081526040918290208054835181840281018401909452808452606093928301828280156102f257602002820191906000526020600020908154815260200190600101908083116102de5750505050509050919050565b6001602081905260009182526040909120805491810154600282015460038301546004840180546001600160a01b039485169594909316939192610cab9061157d565b80601f0160208091040260200160405190810160405280929190818152602001828054610cd79061157d565b8015610d245780601f10610cf957610100808354040283529160200191610d24565b820191906000526020600020905b815481529060010190602001808311610d0757829003601f168201915b505050505090806005018054610d399061157d565b80601f0160208091040260200160405190810160405280929190818152602001828054610d659061157d565b8015610db25780601f10610d8757610100808354040283529160200191610db2565b820191906000526020600020905b815481529060010190602001808311610d9557829003601f168201915b5050506006840154600785015460088601546009870154600a88018054979860ff909516979396509194509291610de89061157d565b80601f0160208091040260200160405190810160405280929190818152602001828054610e149061157d565b8015610e615780601f10610e3657610100808354040283529160200191610e61565b820191906000526020600020905b815481529060010190602001808311610e4457829003601f168201915b505050505090508b565b6000818152600160205260408120805482916060918303610ee557604051600081523390869060008051602061172d8339815191529060200160405180910390a3505060408051808201909152601481527310dc9959195b9d1a585b081b9bdd08199bdd5b9960621b6020820152600092508291506110ae565b6002600682015460ff166003811115610f0057610f0061130b565b03610fcb57604051600081523390869060008051602061172d8339815191529060200160405180910390a36000600282600a01808054610f3f9061157d565b80601f0160208091040260200160405190810160405280929190818152602001828054610f6b9061157d565b8015610fb85780601f10610f8d57610100808354040283529160200191610fb8565b820191906000526020600020905b815481529060010190602001808311610f9b57829003601f168201915b50505050509050935093509350506110ae565b60008160080154118015610fe25750806008015442115b156110545760068101805460ff19166003179055604051600081523390869060008051602061172d8339815191529060200160405180910390a3505060408051808201909152601281527110dc9959195b9d1a585b08195e1c1a5c995960721b602082015260009250600391506110ae565b604051600181523390869060008051602061172d8339815191529060200160405180910390a3505060408051808201909152601381527210dc9959195b9d1a585b081a5cc81d985b1a59606a1b6020820152600192508291505b9193909250565b80356001600160a01b03811681146110cc57600080fd5b919050565b600080604083850312156110e457600080fd5b6110ed836110b5565b946020939093013593505050565b60006020828403121561110d57600080fd5b611116826110b5565b9392505050565b6020808252825182820181905260009190848201906040850190845b8181101561115557835183529284019291840191600101611139565b50909695505050505050565b6000806040838503121561117457600080fd5b50508035926020909101359150565b634e487b7160e01b600052604160045260246000fd5b600082601f8301126111aa57600080fd5b813567ffffffffffffffff808211156111c5576111c5611183565b604051601f8301601f19908116603f011681019082821181831017156111ed576111ed611183565b8160405283815286602085880101111561120657600080fd5b836020870160208301376000602085830101528094505050505092915050565b600080600080600060a0868803121561123e57600080fd5b611247866110b5565b945060208601359350604086013567ffffffffffffffff8082111561126b57600080fd5b61127789838a01611199565b9450606088013591508082111561128d57600080fd5b5061129a88828901611199565b95989497509295608001359392505050565b6000602082840312156112be57600080fd5b5035919050565b6000815180845260005b818110156112eb576020818501810151868301820152016112cf565b506000602082860101526020601f19601f83011685010191505092915050565b634e487b7160e01b600052602160045260246000fd5b6004811061133f57634e487b7160e01b600052602160045260246000fd5b9052565b60208152815160208201526000602083015161136a60408401826001600160a01b03169052565b5060408301516001600160a01b0381166060840152506060830151608083015260808301516101608060a08501526113a66101808501836112c5565b915060a0850151601f19808685030160c08701526113c484836112c5565b935060c087015191506113da60e0870183611321565b60e087015161010087810191909152870151610120808801919091528701516101408088019190915287015186850390910183870152905061141c83826112c5565b9695505050505050565b6000806040838503121561143957600080fd5b82359150602083013567ffffffffffffffff81111561145757600080fd5b61146385828601611199565b9150509250929050565b8b81526001600160a01b038b811660208301528a16604082015260608101899052610160608082018190526000906114a78382018b6112c5565b905082810360a08401526114bb818a6112c5565b90506114ca60c0840189611321565b8660e084015285610100840152846101208401528281036101408401526114f181856112c5565b9e9d5050505050505050505050505050565b83151581526115156020820184611321565b60606040820152600061152b60608301846112c5565b95945050505050565b60006020828403121561154657600080fd5b8151801515811461111657600080fd5b60006001820161157657634e487b7160e01b600052601160045260246000fd5b5060010190565b600181811c9082168061159157607f821691505b6020821081036115b157634e487b7160e01b600052602260045260246000fd5b50919050565b601f82111561160157600081815260208120601f850160051c810160208610156115de5750805b601f850160051c820191505b818110156115fd578281556001016115ea565b5050505b505050565b815167ffffffffffffffff81111561162057611620611183565b6116348161162e845461157d565b846115b7565b602080601f83116001811461166957600084156116515750858301515b600019600386901b1c1916600185901b1785556115fd565b600085815260208120601f198616915b8281101561169857888601518255948401946001909101908401611679565b50858210156116b65787850151600019600388901b60f8161c191681555b5050505050600190811b01905550565b8381526060602082015260006116df60608301856112c5565b828103604084015261141c81856112c5565b60006020828403121561170357600080fd5b5051919050565b60408152600061171d60408301856112c5565b9050826020830152939250505056fe3954caa6d692c74fed0bff98d6597fd18be225948179761244dcb007aef4b8e4a264697066735822122081eb5941355719f6b89c98da0ea68f02bbb139a86018c8d903b8304229ae44a764736f6c63430008140033",
  "linkReferences": {},
  "deployedLinkReferences": {}
}